:020000040800F2
:10000000A807002075070008A5020008A70200083D
:10001000AB020008AF020008B302000800000000B5
:10002000000000000000000000000000B70200080F
:10003000B902000800000000BB020008BD02000871
:100040008F0700088F0700088F0700088F07000838
:100050008F0700088F070008BF0200088F070008FD
:100060008F0700088F0700088F0700088F07000818
:100070008F0700088F0700088F0700088F07000808
:100080008F0700088F0700088F0700088F070008F8
:100090008F0700087B0400088F070008C1020008D2
:1000A0008F0700088F0700088F0700088F070008D8
:1000B0008F0700088F0700088F0700088F070008C8
:1000C0008F0700088F0700088F0700088F070008B8
:1000D0008F0700088F0700088F0700088F070008A8
:1000E000C30200088F0700088F0700080000000007
:1000F0000000000000000000000000000000000000
:1001000000000000000000008F0700088F070008B3
:100110008F0700088F0700088F0700088F07000867
:100120008F0700088F0700088F0700088F07000857
:100130008F0700088F0700088F0700088F07000847
:100140008F0700088F0700088F0700088F07000837
:1001500000F002F800F042F80AA090E8000C824497
:100160008344AAF10107DA4501D100F037F8AFF274
:10017000090EBAE80F0013F0010F18BFFB1A43F085
:1001800001031847BC240000DC240000103A24BFFF
:1001900078C878C1FAD8520724BF30C830C144BFEC
:1001A00004680C607047000000230024002500262E
:1001B000103A28BF78C1FBD8520728BF30C148BFCA
:1001C0000B6070471FB59DE8030001F0F7FF01F0D9
:1001D000C5FC1FBD10B501F02AFD10BD01F08DFD5D
:1001E0001146FFF7EFFF00F009F801F091FF03B4AB
:1001F000FFF7F0FF03BC02F073F90000254E002466
:1002000000F060F84FF40051234801F046F94FF434
:100210008041214801F041F900F0A2F839E00121C4
:100220001E4801F020F9012800D11D4E002500E0F4
:100230006D1CB542FCD3641C072C00D9012404F0CA
:10024000010028B14FF40041134801F028F904E0FF
:100250004FF40041104801F020F904F00200022898
:1002600004D101030C4801F01AF904E04FF40051E5
:10027000094801F012F904F00400042804D1010334
:10028000054801F00CF904E04FF48041024801F008
:1002900004F9C4E7801A0600001401400008014078
:1002A00000093D00704700BFFEE700BFFEE700BF4A
:1002B000FEE700BFFEE77047704770477047704722
:1002C0007047704708B50121202001F0A4FB4FF4CE
:1002D0006040ADF8000002208DF8020014208DF877
:1002E00003006946014801F02BF808BD00140140E5
:1002F00008B50121092001F08EFB0121480601F01B
:1003000097FB01214FF4EA1001F0EBF84FF48070F5
:10031000ADF8000003208DF8020004208DF80300E2
:1003200069465D4801F00CF84FF40070ADF800002C
:1003300018208DF803006946574801F001F808BD00
:1003400008B514208DF8000000208DF801008DF80C
:10035000020001208DF80300684600F030FA08BD65
:1003600000B587B0FFF7ECFFFFF7C2FF4B4800F086
:100370008FFA04A800F0B0FB00208DF816008DF86D
:1003800017008DF818008DF819008DF81A0001205B
:100390008DF81B0000208DF812008DF8130004204A
:1003A0008DF8140002208DF815000420ADF810001F
:1003B00004A93A4800F085FA10B939A001F090FB81
:1003C00000208DF80A008DF80B0001208DF80C003C
:1003D0000020ADF80000ADF80200ADF80400ADF863
:1003E0000600ADF8080001208DF80D00684600F009
:1003F000F2FA01220221294800F0ECFD07B000BD0D
:100400001FB5044600208DF80A008DF80B0001206E
:100410008DF80C004FF6FF7000EA4420ADF80000A4
:100420000020ADF802004FF47E40ADF8040000203B
:10043000ADF80600ADF8080001208DF80D00684603
:1004400000F0C9FA1FBD70B50446002521461348C7
:1004500000F0B0FB064608E06D1C1848854204D940
:1004600017A001F03DFB012070BD31460B4800F0A4
:1004700039FC0128F0D10020F6E710B51A4A002116
:10048000064800F08CFC0221044800F0A6FE012082
:100490001649087010BD0000000C014000640040C7
:1004A000496E697469616C697A652043414E2066C2
:1004B00061696C6564210A0D000000008096980057
:1004C00053656E6420646174612054696D65206FAA
:1004D00075742C446174612073656E642066616973
:1004E0006C6564210A0D0000380000200000002027
:1004F0000CB50020019000909248006840F48030D4
:100500009049086000BF8F48006800F400300090F8
:100510000198401C0190009818B90198B0F5A06F9F
:10052000F1D18848006800F4003010B1012000903B
:1005300001E000200090009801285CD1824800680A
:1005400040F01000804908600846006820F0030071
:1005500008600846006840F002000860794840687A
:10056000784948600846406848600846406840F45A
:10057000806048600846C06A744908407149C86292
:100580000846C06A724908436E49C8620846006856
:1005900040F08060086000BF6A48006800F00060BA
:1005A0000028F9D06748406820F47C10654948600D
:1005B0000846406840F4E81048600846006840F08B
:1005C0008070086000BF5F48006800F0007000287D
:1005D000F9D05C48406820F003005A49486008465A
:1005E000406840F00200486000BF5648406800F094
:1005F0000C000828F9D10CBD10B5FFF779FF10BD2C
:1006000010B55048006840F001004E4908600846A7
:100610004068504908404B494860084600684E49C8
:100620000840484908600846006820F480200860B7
:100630000846406820F4FE0048600846006820F044
:10064000A05008604FF47F0088600020C862FFF768
:10065000D3FF4FF000604149086010BDF0B50021A4
:10066000002000230024002200250026354F7F684B
:1006700007F00C0121B1042908D008294BD10BE067
:10068000374FDFF8E0C0CCF800704AE0364FDFF8B3
:10069000D4C0CCF8007044E02A4F7F6807F4701093
:1006A000284F7F6807F48033800C0D2801D0801C10
:1006B00000E0062033B92D4F4743DFF8A8C0CCF83F
:1006C000007027E01F4FFF6A07F480341D4FFF6A58
:1006D00007F00F077A1C44B9234FB7FBF2F74743E3
:1006E000DFF880C0CCF8007014E0164FFF6AC7F343
:1006F00003177D1C134FFF6AC7F30327BE1C1A4F55
:10070000B7FBF5F77743B7FBF2F74743DFF854C081
:10071000CCF8007005E0124FDFF848C0CCF800704C
:1007200000BF00BF074F7F68C7F30317DFF840C063
:100730001CF807100B4F3F68CF40DFF828C0CCF8FB
:100740000070F0BD001002400020024000F0FEFFEB
:10075000440601000000FFF0FFFFF6FE08ED00E098
:1007600000127A000400002040787D0100093D005D
:10077000080000200948804709480047FEE7FEE7D7
:10078000FEE7FEE7FEE7FEE7FEE7FEE7FEE7FEE741
:1007900004480549054A064B704700000106000859
:1007A00051010008A8010020A8070020A80300208C
:1007B000A803002031490143314A1160704770B5E8
:1007C000002100230F22C47804B32D4C246804F4C4
:1007D000E064C4F5E064210AC1F10403CA4044782E
:1007E00004FA03F18478144021430901254C06786A
:1007F000A155047804F01F050124AC4005786D1163
:10080000AD0005F1E025C5F8004109E0047804F0E9
:100810001F050124AC401C4D0678761145F8264092
:1008200070BD1A4A0A400243154B1B1F1A607047DD
:1008300039B1134A121D12680243114B1B1D1A6075
:1008400006E00F4A121D126882430D4B1B1D1A60F1
:100850007047042808D14FF0E021096941F00401F4
:100860004FF0E022116107E04FF0E021096921F02B
:1008700004014FF0E0221161704700000000FA050A
:100880000CED00E000E400E080E100E080FFFF1FED
:1008900010B50446FE48844209D10121480601F002
:1008A000EEF800214FF0007001F0E9F808E00121B6
:1008B000880601F0E4F800214FF0806001F0DFF8D5
:1008C00010BD30B5024600200023146824F0020455
:1008D0001460146844F00104146000E05B1C546868
:1008E00004F001041CB94FF6FF74A342F6D154681A
:1008F00004F001040CB900206CE08C79012C04D1C7
:10090000146844F08004146003E0146824F0800448
:100910001460CC79012C04D1146844F040041460B4
:1009200003E0146824F0400414600C7A012C04D114
:10093000146844F02004146003E0146824F02004D8
:1009400014604C7A012C04D1146844F01004146033
:1009500003E0146824F0100414608C7A012C04D194
:10096000146844F00804146003E0146824F00804D8
:100970001460CC7A012C04D1146844F0040414608F
:1009800003E0146824F0040414608C78A407CD7884
:1009900044EA05640D7944EA05444D7944EA055476
:1009A0000D886D1E2C43D461146824F0010414607A
:1009B000002300E05B1C546804F001041CB14FF6F6
:1009C000FF74A342F6D1546804F001040CB1002076
:1009D00000E0012030BD10B50021837A012202FA27
:1009E00003F1AC4A126842F00102AA4B1A60A94A0C
:1009F0001C3212688A43A74B1C331A60027BCAB9A7
:100A0000A44A0C3212688A43A24B0C331A60428803
:100A1000C38842EA03439F4A4032847A42F8343022
:100A20000288838842EA03439A4A4032847A02EB7E
:100A3000C4025360027B012A19D1964A0C32126813
:100A40000A43944B0C331A604288038842EA0343FA
:100A5000904A4032847A42F83430C288838842EA2D
:100A600003438C4A4032847A02EBC4025360C27A58
:100A70003AB9884A121D12688A43864B1B1D1A60B8
:100A800006E0844A121D12680A43824B1B1D1A603D
:100A9000028932B97F4A143212688A437D4B14337B
:100AA0001A600289012A06D17A4A143212680A436E
:100AB000784B14331A60427B012A06D1754A1C32E6
:100AC00012680A43734B1C331A60724A126822F090
:100AD0000102704B1A6010BD00218171C171017259
:100AE00041728172C1728170C17003210171022152
:100AF00041710121018070476649096841F0010197
:100B0000644A11601146096843F60E729143614AC6
:100B100011601146096841EA002111601146096817
:100B200021F001011160704721B1026842F4803266
:100B3000026003E0026822F4803202607047E1B193
:100B4000026842F0800202604FF4C272125842F40E
:100B500080734FF4C27213504FF4CA72125842F4A9
:100B600080734FF4CA7213504FF4D272125842F489
:100B700080734FF4D27213501BE0026822F080029F
:100B800002604FF4C272125822F480734FF4C272A2
:100B900013504FF4CA72125822F480734FF4CA7281
:100BA00013504FF4D272125822F480734FF4D27261
:100BB0001350704710B502460020936803F080631D
:100BC000B3F1806F00D110E0936803F00063B3F1DC
:100BD000006F01D1012008E0936803F08053B3F166
:100BE000805F01D1022000E00420042879D002F5C2
:100BF000C07303EB00131B6803F0010402F5C0731C
:100C000003EB00131C600B7A7BB94B7A0C8843EA28
:100C1000445302F5C07404EB00142468234302F526
:100C2000C07404EB0014236010E00B7A4C6843EAB4
:100C3000C4034C7A234302F5C07404EB0014246807
:100C4000234302F5C07404EB001423608B7A03F095
:100C50000F038B7202F5C07303EB00135B6823F084
:100C60000F0402F5C07303EB00135C6002F5C07360
:100C700003EB00135B688C7A234302F5C07404EB2A
:100C8000001463608B7B1C064B7B44EA034403E047
:100C900000640040006600400B7B44EA0323CC7AEA
:100CA000234302F5C07404EB0014A3608B7C1C0684
:100CB0004B7C44EA03440B7C44EA0323CC7B234370
:100CC00002F5C07404EB0014E36002F5C07303EB9B
:100CD00000131B6843F0010402F5C07303EB00131B
:100CE0001C6010BD10B50246002321B1012907D0B8
:100CF00002290FD109E09068F94C00EA04030BE0E7
:100D00009068F84C00EA040306E09068F64C00EAAC
:100D1000040301E0002300BF00BFF44C181BA342F2
:100D200016D007DC83B16FF08060184470B10228E0
:100D300018D111E0B0F5007F10D0ED4C204448B13F
:100D4000B0F5003F0ED10BE002230DE000230BE0D5
:100D5000002309E0002307E0012305E0012303E06D
:100D6000012301E0002300BF00BFD8B210BD21B1B4
:100D7000012907D002290FD109E0826842F08002E0
:100D800082600AE0826842F40042826005E0826884
:100D900042F40002826000E000BF00BF704710B55F
:100DA00000F5D87303EB01131B6803F004031372FF
:100DB000137A53B900F5D87303EB01131B6840F2A3
:100DC000FF7404EA5353136009E000F5D87303EB92
:100DD00001131B686FF0604404EAD303536000F50D
:100DE000D87303EB01131B6803F00203537200F581
:100DF000D87303EB01135B6803F00F03937200F5E4
:100E0000D87303EB01135B681B0AD37400F5D87326
:100E100003EB01139B68D37200F5D87303EB011346
:100E20009B681C0A147300F5D87303EB01139B68CD
:100E30001C0C547300F5D87303EB01139B681B0E55
:100E4000937300F5D87303EB0113DB68D37300F5DC
:100E5000D87303EB0113DB681C0A147400F5D87314
:100E600003EB0113DB681C0C547400F5D87303EB1F
:100E70000113DB681B0E937421B9C36843F0200390
:100E8000C36003E0036943F02003036110BD21B98F
:100E9000C26842F02002C26003E0026942F0200210
:100EA000026170470246002019B9D36803F00300BD
:100EB00006E0012903D1136903F0030000E00020DC
:100EC000704710B502460B4600204FF6FF71BBB9C4
:100ED000146824F0020444F00104146000E0491E88
:100EE000546804F00304012C01D00029F7D15468A0
:100EF00004F00304012C01D0002032E0012030E096
:100F0000012B13D1146824F00304146000E0491E7F
:100F1000546804F003040CB10029F8D1546804F0BB
:100F200003040CB100201CE001201AE0022B17D1B1
:100F3000146824F0010444F00204146000E0491E27
:100F4000546804F00304022C01D00029F7D154683E
:100F500004F00304022C01D0002002E0012000E094
:100F6000002010BD014600200A6822F0010242F074
:100F700002020A604A6802F00302022A00D101203C
:100F8000704701464FF6FF7200200B6823F0020302
:100F90000B6000E0521E4B6803F00203022B01D1EC
:100FA000002AF7D14B6803F00203022B00D0012086
:100FB0007047014600208A6902F0700070470146C0
:100FC00000208A69100E7047014600208A69C2F32A
:100FD000074070471AB143690B43436102E043691C
:100FE0008B434361704710B50246002001F4700343
:100FF00043B19369C1F3130423400BB101202DE0E9
:1010000000202BE001F0807343B15368C1F3130457
:1010100023400BB1012021E000201FE001F000631C
:1010200043B19368C1F3130423400BB1012015E0D1
:10103000002013E001F0007343B1D368C1F313043F
:1010400023400BB1012009E0002007E01369C1F340
:10105000130423400BB1012000E0002010BD00224A
:10106000244B994202D10023836111E0C1F31302A2
:1010700001F000730BB1C2600AE001F080630BB1B4
:10108000026105E001F000630BB1826000E04260A4
:1010900070470246002002EA01030BB1012000E084
:1010A0000020704770B504460D4600266069284050
:1010B000002872D0B5F5807F69D01DDC082D42D0A4
:1010C00006DC012D2DD0022D31D0042D7FD134E04E
:1010D000102D3ED0202D42D0402D78D145E000008B
:1010E00003000004000300080000031000010008D2
:1010F0000001FFF77000F030B5F5004F61D009DC5A
:10110000B5F5007F4AD0B5F5806F4DD0B5F5006FCD
:101110005DD150E0B5F5803F2DD0B5F5003F56D1FB
:101120002FE0A0685549FFF7B4FF064651E0E0689C
:101130000321FFF7AEFF06464BE0E0680821FFF70A
:10114000A8FF064645E0E0681021FFF7A2FF06462B
:101150003FE020690321FFF79CFF064639E0206944
:101160000821FFF796FF064633E020691021FFF7BC
:1011700090FF06462DE060680821FFF78AFF0646CB
:1011800027E060681021FFF784FF064621E0A06990
:101190000121FFF77EFF06461BE01BE0A06902214C
:1011A000FFF777FF064614E0A0690421FFF771FFFF
:1011B00006460EE00BE0A0697021FFF76AFF0646C5
:1011C00007E060680421FFF764FF064601E000269F
:1011D00000BF00E00026304670BDB1F5007F3AD078
:1011E0000FDC202928D006DC01291CD004291DD0C1
:1011F000082940D11DE0402921D0B1F5807F3AD1A6
:1012000026E0B1F5004F31D006DCB1F5806F25D076
:10121000B1F5006F2FD124E0B1F5803F12D0B1F5C8
:10122000003F28D111E0154A826025E00822C26003
:1012300022E01022C2601FE0082202611CE010229E
:10124000026119E00822426016E01022426013E0B9
:101250000422426010E0042242600DE00422426059
:101260000AE0002282610422426005E000228261DD
:101270000422426000E000BF00BF7047010101008E
:1012800010B50446CC48844208D10121042000F066
:10129000E9FB0021042000F0E5FB46E0C74884425A
:1012A00008D10121082000F0DDFB0021082000F01A
:1012B000D9FB3AE0C248844208D10121102000F055
:1012C000D1FB0021102000F0CDFB2EE0BD48844270
:1012D00008D10121202000F0C5FB0021202000F0D2
:1012E000C1FB22E0B848844208D10121402000F02F
:1012F000B9FB0021402000F0B5FB16E0B348844262
:1013000008D10121802000F0ADFB0021802000F0F9
:10131000A9FB0AE0AE48844207D10121801500F004
:10132000A1FB0021A01500F09DFB10BD10B501210F
:10133000084600F097FB0021012000F093FB10BD50
:101340002DE9F0410246002500260020002300245C
:10135000002791F803C00CF00F0591F803C00CF0C2
:10136000100CBCF1000F03D091F802C04CEA050547
:1013700091F800C0BCF1000F31D0146800202BE0C0
:101380004FF0010C0CFA00F3B1F800C00CEA0306B0
:101390009E4220D183004FF00F0C0CFA03F7BC43A0
:1013A00005FA03FC4CEA040491F803C0BCF1280FD1
:1013B00006D14FF0010C0CFA00FCC2F814C00AE090
:1013C00091F803C0BCF1480F05D14FF0010C0CFAA5
:1013D00000FCC2F810C0401C0828D1D31460B1F83A
:1013E00000C0BCF1FF0F34DD546800202EE000F196
:1013F000080C4FF0010808FA0CF3B1F800C00CEA31
:1014000003069E4221D183004FF00F0C0CFA03F724
:10141000BC4305FA03FC4CEA040491F803C0BCF198
:10142000280F05D100F1080C08FA0CF8C2F8148056
:1014300091F803C0BCF1480F07D100F1080C4FF040
:10144000010808FA0CF8C2F81080401C0828CED316
:101450005460BDE8F0814FF6FF7101800221817078
:101460000421C17070470246002093680B400BB105
:10147000012000E0002070470146886880B2704774
:1014800002460020D3680B400BB1012000E0002091
:1014900070470146C86880B270470161704741617A
:1014A00070470AB1016100E041617047C160704757
:1014B0004FF480320A43826181618261826982696C
:1014C000704702460020434B18684FF6807318405F
:1014D00040EA021008433F4B186070473E49C8611C
:1014E0007047F0B50A46002300240021002500F0D3
:1014F0000046B6F1004F02D1364EF16901E0354E9B
:101500007168C0F3034583B200F44016B6F5401F7E
:1015100008D121F070612F4E766826F070662D4F4D
:101520007E6012E000F48016B6F5801F06D1032617
:1015300006FA05F4A14341F0706106E0460D36015C
:1015400003FA06F6B14341F0706122B1460D36014F
:1015500003FA06F6314300F00046B6F1004F02D11F
:101560001C4EF16101E01B4E7160F0BD30B50022F0
:101570008B071C0F0F2303FA04F2164B08338C1051
:1015800053F824309343134C08348D1044F825301D
:1015900023468C1053F824308C07240F00FA04F4EF
:1015A00023430C4C08348D1044F8253030BD0A49D3
:1015B000DC3108607047000000080140000C014069
:1015C000001001400014014000180140001C0140BF
:1015D000002001400000014000002042FB4800685C
:1015E00040F00100F949086008464068F8490840A1
:1015F000F649486008460068F6490840F349086023
:101600000846006820F4802008600846406820F4FE
:10161000FE0048600846006820F0A05008604FF4C3
:101620007F0088600020C8627047E849096821F49B
:101630008031E64A11601146096821F48021116069
:10164000B0F5803F03D0B0F5802F0ED106E0DF4922
:10165000096841F48031DD4A116007E0DB4909681F
:1016600041F4A021D94A116000E000BF00BF7047DB
:1016700010B501460022002300204A11012A02D1A0
:10168000D24C236806E0022A02D1D04C236A01E042
:10169000CE4C636A01F01F02012494401C400CB13F
:1016A000012000E0002010BD38B50020009000248B
:1016B000002500BF3120FFF7DBFF05460098401CE6
:1016C00000900098B0F5A06F01D0002DF2D031202D
:1016D000FFF7CEFF08B1012400E00024204638BD0A
:1016E00001460020B94A106820F0F80040EAC10025
:1016F00010607047B8490860704702460020B34B3D
:10170000586820F4741042EA01031843AF4B586044
:101710007047B1490866704702460020AB4BD86A53
:10172000AE4B184042EA01031843A84BD8627047F9
:1017300001460020A54AD06A20F0F0000843D0629C
:10174000704701460020A14AD06A20F47060084327
:10175000D0627047A04988667047014600209B4AC6
:10176000D06A20F470400843D06270479A490867F5
:10177000704701460020954A506820F00300084356
:10178000506070479148406800F00C007047014677
:1017900000208E4A506820F0F000084350607047E7
:1017A00001460020894A506820F4E06008435060F8
:1017B000704701460020854A506820F4605040EA96
:1017C000C1005060704729B1804A527A02437F4B72
:1017D0005A7204E07D4A527A82437C4B5A727047B7
:1017E0007D49D8310860704701460020774A50682B
:1017F00020F44040084350607047794908607047C2
:101800007749091D086070470021704A2032117025
:101810006E4A82F82010012802D004280AD104E080
:1018200001216A4A2032117005E00521674A203201
:10183000117000E000BF00BF70476A490860704740
:101840006249096A0143614A116270476549443936
:10185000086070472DE9F041002100220025002397
:101860000026002400278C46DFF86081D8F8048029
:1018700008F00C0121B1042907D0082959D109E049
:10188000DFF86481C0F8008058E0DFF86081C0F8BC
:10189000008053E0DFF83481D8F8048008F4701237
:1018A000DFF82881D8F8048008F48035920C0D2ADE
:1018B00001D0921C00E0062235B9DFF8348102FB2A
:1018C00008F8C0F8008033E0DFF80081D8F82C80F9
:1018D00008F48036DFF8F480D8F82C8008F00F0880
:1018E00008F1010446B9DFF80481B8FBF4F808FBFD
:1018F00002F8C0F800801BE0DFF8D080D8F82C8018
:10190000C8F3031808F10107DFF8C080D8F82C806D
:10191000C8F3032808F1020CDFF8D080B8FBF7F811
:1019200008FB0CF8B8FBF4F808FB02F8C0F80080DC
:1019300004E0DFF8B480C0F8008000BF00BFDFF82B
:101940008C80D8F8048008F0F0010909DFF8A48041
:1019500018F80130D0F8008028FA03F8C0F80480A5
:10196000DFF86880D8F8048008F4E061090ADFF83D
:10197000848018F80130D0F8048028FA03F8C0F801
:101980000880DFF84880D8F8048008F46051C90A5C
:10199000DFF8608018F80130D0F8048028FA03F8E6
:1019A000C0F80C80DFF82480D8F8048008F44041A7
:1019B000890BDFF8448018F80130D0F80C80B8FBB0
:1019C000F3F8C0F81080BDE8F0810000001002407C
:1019D0000000FFF0FFFFF6FE00004242F0FFFEFFB6
:1019E000C40542428004424200127A0040787D01E0
:1019F00000093D00180000202800002029B1354AC8
:101A000052690243334B5A6104E0324A52698243BD
:101A1000304B5A61704729B12E4A926902432D4BCF
:101A20009A6104E02B4A926982432A4B9A6170477B
:101A300029B1284AD2690243264BDA6104E0254ADB
:101A4000D2698243234BDA61704729B1214A926AF5
:101A50000243204B9A6204E01E4A926A82431D4B65
:101A60009A62704729B11B4AD2680243194BDA6067
:101A700004E0184AD2688243164BDA60704729B1F5
:101A8000144A12690243134B1A6104E0114A1269A5
:101A90008243104B1A6170470F49086070470F4925
:101AA000C86470470B49C87170470A48406A40F0E3
:101AB000807008494862704701460020054A9268D4
:101AC0000A400AB1012000E00020704701498872F5
:101AD00070470000001002404004424200004242B1
:101AE0000FB4044910B503AA029800F009F810BC1D
:101AF0005DF814FBA000002070477047704700009D
:101B0000074B70B50D467B4400F011F8044628469B
:101B100000F020F810B14FF0FF3070BD204670BDCE
:101B20000F0B000001694A1C02610878704700B57C
:101B30008FB0CDE901310021059105497944CDE906
:101B400003101146684600F024F90FB000BD0000F4
:101B5000E5FFFFFF007B00F08000704710B54248B2
:101B6000542100F0E2FA4148542100F0DEFA4048E6
:101B7000542100F0DAFA3F493B483C4A3F4B0860A9
:101B80003D490A603A491960531C0365481C1065B9
:101B9000012008653B48344A39A1784400F01CFA1A
:101BA00020B9384878440A3800F0B8FA37482F4A44
:101BB00035A1784400F010FA20B9344878440A3846
:101BC00000F0ACFA32482A4A2FA1784400F004FA17
:101BD00020B92F4878440A3800F0A0FA4023224860
:101BE000DC000021224600F0D3F920B125487844DA
:101BF000543800F093FA1D4822464023002100F09B
:101C0000C7F920B121487844543800F087FA1848C1
:101C100022461023002100F0BBF9002806D01C4802
:101C20007844BDE81040563800F078BA10BD10482E
:101C300070B5006D20F001040B4800F043FA0B482A
:101C400000F040FA0A4800F03DFA09E0206D20F06B
:101C50000105204600F036FA204600F073F82C46C5
:101C6000002CF3D170BD00004C000020A00000202B
:101C7000F40000202C000020300000203400002060
:101C800072000000940A000077000000800A000043
:101C90006C0A00000EB5CDE9000100F001FC0290D5
:101CA00069460120ABBE0EBD08B569460090022012
:101CB000ABBE08BD1FB58DE8070069460520ABBE69
:101CC00004B010BD1FB58DE80F0069460620ABBEFD
:101CD000F6E708B5694600900920ABBE08BD1CB503
:101CE000CDE9000169460A20ABBE1CBD704708B5AE
:101CF000694600900C20ABBE08BD754600F03CFA6A
:101D0000AE4605006946534620F00700854618B0E8
:101D100020B5FEF73DFDBDE820404FF000064FF036
:101D200000074FF000084FF0000B21F00701AC4610
:101D3000ACE8C009ACE8C009ACE8C009ACE8C0092F
:101D40008D46704770B50446051F00F01BFA006809
:101D5000002C14BF446870BD002C18BFAC423CBFBF
:101D600020466468F8D301680A18AA4218BF456083
:101D700003D12A6805461144016028684119A1422F
:101D80001CBF6C6070BD6168696021680844286090
:101D900070BD2DE9F04106460024D6E90170F568D2
:101DA0008046304603E04146B847641C3046A847A9
:101DB0000028F8D12046BDE8F0812DE9F04705461E
:101DC0000C46C86820F4201040F48000C8608006EB
:101DD00002D5084600F023FBE06841F282014FF093
:101DE000FF390140022903D0204600F0C1FAB5E0D6
:101DF00000F42041B1F5004F0FD1C00306D5616852
:101E0000E06A884200D80846606006E02069E06227
:101E100060606069FFF76BFFA061A0680022EEB20E
:101E200000280DDAE1688B050AD4C043A06041F4B4
:101E300090302260E0606068411C61600670A5E03F
:101E4000E0689046226040F40050E060206968BB82
:101E50006069FFF73EFF012704F12405A0B1A089C6
:101E600010F4407F08D0E06900F0D7F9206118B184
:101E7000E06840F4006016E0E7612561E06820F466
:101E8000407040F480600EE0E06900F0C6F9002880
:101E90002061F1D0E06840F4006010F4407FE06021
:101EA00002D140F48070E06020696060E0682569DC
:101EB0006FF0010AC1051FD56168E06A884200D849
:101EC0000846411B04D02246284600F05BFAF0BBCE
:101ED000E068010203D5E562C4E9015854E0691CD9
:101EE000E1626160E16940F48030491EC4E902109A
:101EF00030462E70BDE8F087010202D500F4803232
:101F00000AE06068411C61600670E0680A2E40F4D7
:101F10008030E06006D00022E16A6068814203D927
:101F20000B4602E00122F7E70346A7895B1B7F050A
:101F300003D4E7699F4200DDE2B1814200D8014647
:101F4000E5620F1AC4E90158002B09DD00E005E045
:101F500022461946284600F015FA08B14846C9E756
:101F600047B1A069E5626560C01BA061E06840F010
:101F70001000E060E068000208D56168A069E562D1
:101F8000491B08446560A0615046B3E73046B1E79D
:101F900070B5C468A50713D0650211D4B2F5807F6F
:101FA00009D0B2F5007F06D0B2F5806F08D10123C9
:101FB00000F1240106E05D1E6FF07F46B54201D3BB
:101FC000012070BD0161C361416024F4706111435F
:101FD000C160002070BD00002DE9F0410C460746AD
:101FE0001646104600F06EF82078611C61280AD071
:101FF000722802D077283CD102E00125002405E0B8
:102000000225042402E0082448F2020511F8010B1D
:102010002B2806D0622809D011F8010C74280AD0A8
:102020000BE045F0030544F00204EFE745F004053A
:1020300044F00104EAE744F0100438462146FFF773
:1020400029FE411C15D00021316171604FF40071EF
:10205000F560F1617061200704D53046022200214D
:1020600000F00AF9306D40F0010030653046BDE8FF
:10207000F0810020FBE72DE9F0410D460646104CAB
:10208000206DC10704D0410804D020F00104F7E717
:1020900022460EE0542000F0C0F807000ED0206D5C
:1020A00047F00101084354212065384600F03DF80F
:1020B0003A4629463046BDE8F0418DE70020D6E794
:1020C0004C0000202DE9F04704464FF000094FF086
:1020D000FF37C568D4E90486A80707D0204600F07A
:1020E0007BF93046FFF7E0FD002802DA3846BDE80C
:1020F000F087280502D54046FFF724FE4C212046F4
:1021000000F013F8206D20F0010020654846EEE74E
:102110000446AFF300802046FEF769F810B500F0E2
:10212000A5F9BDE8104000F09BB94FF0000200B5E2
:10213000134694469646203922BFA0E80C50A0E8EA
:102140000C50B1F12001BFF4F7AF090728BFA0E898
:102150000C5048BF0CC05DF804EB890028BF40F864
:10216000042B08BF704748BF20F8022B11F0804FA6
:1021700018BF00F8012B7047004870474801002045
:1021800070470000004870475001002070477047BA
:102190007047704738B504460A4600206946AFF3D9
:1021A0000080002808BF38BD02460099204600F094
:1021B000A4F9012038BD012000F0F3B9F8B5AFF360
:1021C0000080054600200C46102000BF0646A819D6
:1021D000A0420DD9324669460020AFF300800700C7
:1021E00008BF00F0DEF90098A04218BF0546C419E8
:1021F000FFF7C8FF05600746F01D20F007004619ED
:10220000284600F073F9B44208BFF8BDA21B31465E
:102210003868BDE8F84000F070B970B50646FFF7C1
:10222000B1FF056806F10B0020F00704B4429CBF23
:10223000002070BD2B466A68BAB11068A04210D366
:1022400004F1080188423CBF5068586007D35168C8
:10225000101941601168091B016058601460101D5D
:1022600070BD13465268002AE7D121462846FFF781
:1022700091FF0028DED170BD2DE9F04104461646DD
:102280000D464769007B80072ED03846FFF721FDB9
:1022900050BB3EB3012E02D0022E25D104E02046D1
:1022A00000F045F905441DE03846FFF720FDE168E0
:1022B000002841F01001E16005DA204600F058F8EE
:1022C0000120BDE8F081C9030BD56268E16A914243
:1022D00000D81146A26911442269891A814200DDA1
:1022E00008460544002D01DA0220EAE7E16A606849
:1022F000E268814206D29103E06203D522F4003104
:1023000041F01002A6690027AE4213DCE16A814267
:1023100001D90B4600E0034603EB060C2369ACEB46
:10232000030CAC4506DD814201D98C4600E08446B1
:102330009C4505D1A760276042F02000A5620DE012
:10234000AD1BE669AE1B8142A66000D90846C01AE3
:10235000281A20605819606022F0200003490840C4
:10236000E060002084F84870ABE70000BFCFD7FFE3
:10237000C16821F4001141F08001C1600021816039
:10238000016070472DE9F047814614460E464FF034
:10239000FF383248D5685769054209D03846A169E7
:1023A000FFF79DFC002811DB2C48C0430540E56089
:1023B0002B46324649463846FFF77CFCA16920F09F
:1023C0000042B21A11440028A16103D02046FFF751
:1023D000CFFF4046BDE8F08770B504460569C06A86
:1023E0006168884200D80846E16821F42011E16064
:1023F000C90312D5A84208D02246411B2846FFF740
:10240000C1FF10B14FF0FF3070BD0020E562C4E99C
:102410000150E06820F48030E060002070BD10B50D
:102420000446C06820F02000E060A16AA0698842EC
:102430000DD02046FFF7D0FFE06820F4405040F078
:102440001000E060A06AA0612069E062606044F270
:102450004001E0688843E06010BD00001000020009
:10246000002801D000F03CB87047000010B50146CC
:1024700002A000F07DF8012010BD00005349475232
:10248000545245443A2052656469726563743A2037
:1024900063616E2774206F70656E3A200000000043
:1024A00010B5431C02E010F8011B71B18107FAD18D
:1024B0004FF0013202C88C1A8C4314EAC211F9D0D1
:1024C000C01A0A0603D0C01E10BDC01A10BD0A04EF
:1024D00001D0801E10BD0902FCD0401E10BD0000BE
:1024E00001491820ABBEFEE7260002000021016072
:1024F000C0E90110704710207047034640688C46C1
:10250000002818BF88423CBF03464068F8D31868CB
:102510001844884207D00CF1030020F00700001D8A
:10252000411A521A0146081D0A60FFF70BBC10B58C
:102530000146C268900703D0900607D5886A0AE072
:1025400000F03EF801210160881E10BD8B694868CB
:1025500018440B69C01A91F848301BB191F8491022
:10256000401A10BD1103FCD50028FADD401E10BD35
:1025700070B505460C460A2000E06D1C00F018F806
:1025800035B128780028F8D102E0641C00F010F87A
:1025900014B120780028F8D1BDE870400A2000F07E
:1025A00007B810B500F010F8BDE81040FFF758BFAD
:1025B00008B569468DF800000320ABBE08BD0000D9
:1025C000004870474801002010B5012805D00021BF
:1025D00003A0FFF7CDFF012010BD09A1F8E700001F
:1025E00053494752544D454D3A204F7574206F66FC
:1025F0002068656170206D656D6F72790000000064
:102600003A2048656170206D656D6F727920636F47
:1026100072727570746564008A68002A01DCFFF7C5
:10262000CCBB521E8A604A68C0B2531C4B6010700B
:1026300070473A7474003A7474003A74740000007D
:102640006026000800000020380000008C0100080F
:10265000982600083800002070070000A801000834
:102660000000000000A24A0400000000000000007A
:102670000102030406070809000000000102030428
:10268000010203040607080902040608000000000E
:08269000000000000000000042
:04000005080001519D
:00000001FF
