:020000040800F2
:10000000A807002075070008A5020008A70200083D
:10001000AB020008AF020008B302000800000000B5
:10002000000000000000000000000000B70200080F
:10003000B902000800000000BB020008BD02000871
:100040008F0700088F0700088F0700088F07000838
:100050008F0700088F070008BF0200088F070008FD
:100060008F0700088F0700088F0700088F07000818
:100070008F0700088F0700088F0700088F07000808
:100080008F0700088F0700088F0700088F070008F8
:100090008F0700087B0400088F070008C1020008D2
:1000A0008F0700088F0700088F0700088F070008D8
:1000B0008F0700088F0700088F0700088F070008C8
:1000C0008F0700088F0700088F0700088F070008B8
:1000D0008F0700088F0700088F0700088F070008A8
:1000E000C30200088F0700088F0700080000000007
:1000F0000000000000000000000000000000000000
:1001000000000000000000008F0700088F070008B3
:100110008F0700088F0700088F0700088F07000867
:100120008F0700088F0700088F0700088F07000857
:100130008F0700088F0700088F0700088F07000847
:100140008F0700088F0700088F0700088F07000837
:1001500000F002F800F042F80AA090E8000C824497
:100160008344AAF10107DA4501D100F037F8AFF274
:10017000090EBAE80F0013F0010F18BFFB1A43F085
:1001800001031847BC240000DC240000103A24BFFF
:08269000000000000000001242
:04000005080001519D
:00000001FF
